:1000000009C0FEC020C01FC01EC01DC032C11BC021
:100010001AC019C011241FBECFE9CDBF10E0A0E661
:10002000B0E0E4EAF2E002C005900D92A836B10714
:10003000D9F710E0A8E6B0E001C01D92AF36B107D5
:10004000E1F70ED02DC1DCCFE199FECF1CBA1EBA6C
:100050008DBB0FB6F894E29AE19A0FBE80E0089546
:100060002AE02093690010926B0084E290E0909364
:100070006E0080936D0087B38E6187BB81E085BF82
:1000800080E48BBF82E08FBD84E083BF89B784604A
:1000900089BF26BF7894FFCF982F1092680012BEB8
:1000A00082E08FBD84E083BF89B7846089BF80917F
:1000B00068008917E0F313BE0895282FC1981092A5
:1000C000680012BE82E08FBD84E083BF89B7846080
:1000D00089BF809168008830E0F313BEC19A109206
:1000E000680012BE82E08FBD84E083BF89B7846060
:1000F00089BF809168008823E1F313BE98E042E055
:1001000034E0C19827FF0DC01092680012BE4FBDA9
:1001100033BF89B7846089BF809168008230E0F383
:1001200013BE1092680012BE4FBD33BF89B7846002
:1001300089BF809168008823E1F313BEC19A220F22
:100140001092680012BE4FBD33BF89B7846089BF6B
:10015000809168008823E1F313BE915091F62093BB
:1001600069008FEF80936A0010926B0080E0089521
:1001700012BE82E08FBD84E083BF89B7846089BFEF
:1001800010926800089580916800863050F081E0F8
:1001900080936B001092690010926A0012BE109258
:1001A0006800089512BE109268000895809168005A
:1001B000823028F08091690081608093690080918D
:1001C0006A008F5F80936A008830A1F4E0916D002F
:1001D000F0916E00309749F080916900099588236D
:1001E00021F410926B0013BE0895109269001092D2
:1001F0006A00089580916900880F809369000895CE
:100200001F920F920FB60F9211242F933F934F938B
:100210005F936F937F938F939F93AF93BF93EF936E
:10022000FF93E0916B00E23098F486B38695809559
:10023000817080936C00F0E0EE0FFF1FE80FF11D5E
:10024000EE0FFF1FE05AFF4F0190F081E02D09955E
:10025000FF91EF91BF91AF919F918F917F916F919E
:100260005F914F913F912F910F900FBE0F901F9074
:1002700018951F920F920FB60F9211248F939F9390
:10028000809168008F5F8093680088B394E089272D
:1002900088BB9F918F910F900FBE0F901F90189564
:0402A000F894FFCF00
:0802A400C300B800D600D2002F
:00000001FF
